:100000000C9434000C943E000C943E000C943E0082
:100010000C943E000C943E000C943E000C943E0068
:100020000C943E000C943E000C943E000C943E0058
:100030000C943E000C943E000C943E000C943E0048
:100040000C943E000C943E000C943E000C943E0038
:100050000C943E000C943E000C943E000C943E0028
:100060000C943E000C943E0011241FBECFEFD8E04C
:10007000DEBFCDBF0E946B010C94F9010C9400000F
:1000800082E68093B80084E08093BC001092B900AF
:10009000089584EA8093BC008091BC008823E4F733
:1000A00008958093BB0084E88093BC008091BC00DD
:1000B0008823E4F7089540E050E00AC02F5F3F4FE7
:1000C00002C020E030E029373105C4F34F5F5F4FB5
:1000D00084179507B4F70895EBEBF0E08081826018
:1000E000808384E88093BC008091BC008823E4F77F
:1000F00081E090E00E945B00EBEBF0E080818D7F7F
:10010000808384E88093BC008091BC008823E4F75E
:100110000895EBEBF0E090819E7F908394E89093BC
:10012000BC009091BC009923E4F7EBEBF0E09081E8
:100130009F70908394E89093BC009091BC009923A9
:10014000E4F7EBEBF0E09081807F892B808384E8FB
:100150008093BC008091BC008823E4F70E946C006F
:100160000895CF93C82FEBEBF0E080818E7F8083E2
:1001700084E88093BC008091BC008823E4F7EBEB1B
:10018000F0E080818F70808384E88093BC00809150
:10019000BC008823E4F7EBEBF0E080819C2F907F9C
:1001A000892B808384E88093BC008091BC008823E5
:1001B000E4F70E946C00EBEBF0E080818F708083AD
:1001C00084E88093BC008091BC008823E4F7EBEBCB
:1001D000F0E0208130E1C39FC0011124822B808395
:1001E00084E88093BC008091BC008823E4F70E94DF
:1001F0006C00CF91089580E30E94890080E30E9403
:10020000890080E20E94890088E20E94B1008CE0AF
:100210000E94B10081E00E94B10086E00E94B1001E
:1002200080E80E94B1000895CF93C82FEBEBF0E077
:1002300080818160808384E88093BC008091BC00D1
:100240008823E4F7EBEBF0E080818F70808384E813
:100250008093BC008091BC008823E4F7EBEBF0E0D6
:1002600080819C2F907F892B808384E88093BC00C1
:100270008091BC008823E4F70E946C00EBEBF0E077
:1002800080818F70808384E88093BC008091BC0063
:100290008823E4F7EBEBF0E0208130E1C39FC0015D
:1002A0001124822B808384E88093BC008091BC0061
:1002B0008823E4F70E946C00CF910895CF93DF93D9
:1002C000EC0103C021960E94140188818111FACFAC
:1002D000DF91CF910895CF93DF9300D01F92CDB7D8
:1002E000DEB70E9440000E94490080E70E94510052
:1002F0000E94FB00F89484B7877F84BFE0E6F0E0BB
:10030000108288E1808388E68083789484B181704C
:1003100084B900E010E081E085B985B94AE050E099
:10032000BE016F5F7F4FC8010E94B90180E80E9443
:10033000B100CE0101960E945E012FEF80E792E0AE
:10034000215080409040E1F700C00000189BE3CFAF
:100350000F5F1F4FE0E6F0E08081806480832FEF25
:1003600080E792E0215080409040E1F700C000001B
:10037000D2CF4532510520F4423010F00C94C40124
:10038000FB011082CB010895BB274A3031F4992339
:1003900022F4BDE2909581959F4F0C94D001BB272C
:1003A000FB015527AA27880F991FAA1FA41710F031
:1003B000A41B83955051B9F7A05DAA3308F0A95D3D
:1003C000A193009779F7B111B1931192CB010C94DD
:1003D000E901DC01FC01672F71917723E1F7329786
:1003E00004C07C916D9370836291AE17BF07C8F310
:0603F0000895F894FFCF10
:00000001FF
