S022000041546D6567613332385F4932435F5457495F5761746368646F672E7372656336
S11300000C9434000C943E000C943E000C943E007E
S11300100C943E000C943E000C943E000C943E0064
S11300200C943E000C943E000C943E000C943E0054
S11300300C943E000C943E000C943E000C943E0044
S11300400C943E000C943E000C943E000C943E0034
S11300500C943E000C943E000C943E000C943E0024
S11300600C943E000C943E0011241FBECFEFD8E048
S1130070DEBFCDBF0E946B010C94F1010C94000013
S113008040E050E00AC02F5F3F4F02C020E030E064
S113009029373105C4F34F5F5F4F84179507B4F7D1
S11300A00895EBEBF0E080818260808384E88093A4
S11300B0BC008091BC008823E4F781E090E00E94BA
S11300C04000EBEBF0E080818D7F808384E88093B7
S11300D0BC008091BC008823E4F70895EBEBF0E0CA
S11300E090819E7F908394E89093BC009091BC0093
S11300F09923E4F7EBEBF0E090819F70908394E810
S11301009093BC009091BC009923E4F7EBEBF0E0F2
S11301109081807F892B808384E88093BC008091C8
S1130120BC008823E4F70E9451000895CF93C82FA0
S1130130EBEBF0E080818E7F808384E88093BC00C9
S11301408091BC008823E4F7EBEBF0E080818F70B2
S1130150808384E88093BC008091BC008823E4F70A
S1130160EBEBF0E080819C2F907F892B808384E8E7
S11301708093BC008091BC008823E4F70E94510066
S1130180EBEBF0E080818F70808384E88093BC0087
S11301908091BC008823E4F7EBEBF0E0208130E1B0
S11301A0C39FC0011124822B808384E88093BC0008
S11301B08091BC008823E4F70E945100CF910895F8
S11301C080E30E946E0080E30E946E0080E20E9441
S11301D06E0088E20E9496008CE00E94960081E006
S11301E00E94960086E00E94960080E80E94960095
S11301F00895CF93C82FEBEBF0E08081816080837A
S113020084E88093BC008091BC008823E4F7EBEB86
S1130210F0E080818F70808384E88093BC008091BB
S1130220BC008823E4F7EBEBF0E080819C2F907F07
S1130230892B808384E88093BC008091BC00882350
S1130240E4F70E945100EBEBF0E080818F70808333
S113025084E88093BC008091BC008823E4F7EBEB36
S1130260F0E0208130E1C39FC0011124822B808300
S113027084E88093BC008091BC008823E4F70E944A
S11302805100CF910895CF93DF93EC0103C02196E1
S11302900E94F90088818111FACFDF91CF910895EE
S11302A082E68093B80084E08093BC001092B90089
S11302B0089584EA8093BC008091BC008823E4F70D
S11302C008958093BB0084E88093BC008091BC00B7
S11302D08823E4F70895CF93DF9300D01F92CDB71E
S11302E0DEB70E9450010E94590180E790E00E940D
S11302F061010E94E000F89484B7877F84BFE0E640
S1130300F0E088E1808387E48083789484B181700D
S113031084B900E010E081E085B985B94AE050E095
S1130320BE016F5F7F4FC8010E94B10180E890E079
S11303300E949600CE0101960E9443012FEF80E7B0
S113034092E0215080409040E1F700C00000189BEB
S1130350E2CF0F5F1F4FE0E6F0E08081806480838E
S1130360DACF4532510520F4423010F00C94BC0130
S1130370FB011082CB010895BB274A3031F4992345
S113038022F4BDE2909581959F4F0C94C801BB2740
S1130390FB015527AA27880F991FAA1FA41710F03D
S11303A0A41B83955051B9F7A05DAA3308F0A95D49
S11303B0A193009779F7B111B1931192CB010C94E9
S11303C0E101DC01FC01672F71917723E1F732979A
S11303D004C07C916D9370836291AE17BF07C8F31C
S10903E00895F894FFCF1C
S9030000FC
