S022000041546D6567613332385F4932435F5457495F5761746368646F672E7372656336
S11300000C9434000C943E000C943E000C943E007E
S11300100C943E000C943E000C943E000C943E0064
S11300200C943E000C943E000C943E000C943E0054
S11300300C943E000C943E000C943E000C943E0044
S11300400C943E000C943E000C943E000C943E0034
S11300500C943E000C943E000C943E000C943E0024
S11300600C943E000C943E0011241FBECFEFD8E048
S1130070DEBFCDBF0E9484000C9495000C94000058
S113008082E691E09093C5008093C40088E1809358
S1130090C10086E08093C20008958091C000882347
S11300A0E4F78091C600089580E28093B800089533
S11300B084EA8093BC008091BC008823E4F780E04C
S11300C090E0089584E98093BC008091BC0084FD95
S11300D0FCCF08958093BB0084E88093BC0080919A
S11300E0BC008823E4F780E090E00895E0E6F0E0C7
S11300F088E180838EE0808308950E9440000E94FE
S113010054000E94760008950E947D0078940E9415
S11301104D00C82F0E945800892B29F48C2F0E946F
S11101206A000E946200A895F2CFF894FFCF07
S9030000FC
