S022000041546D6567613332385F4932435F5457495F5761746368646F672E7372656336
S11300000C9434000C943E000C943E000C943E007E
S11300100C943E000C943E000C943E000C943E0064
S11300200C943E000C943E000C943E000C943E0054
S11300300C943E000C943E000C943E000C943E0044
S11300400C943E000C943E000C943E000C943E0034
S11300500C943E000C943E000C943E000C943E0024
S11300600C943E000C943E0011241FBECFEFD8E048
S1130070DEBFCDBF0E9484000C9492000C9400005B
S11300809093C5008093C40088E18093C10086E00A
S11300908093C20008958091C0008823E4F7809182
S11300A0C60008951092B90086E48093B80084E0F5
S11300B08093BC00089594EA9093BC009091BC0096
S11300C09923E4F79CE39093BB0094E89093BC00DD
S11300D09091BC009923E4F78093BB0084E880935B
S11300E0BC008091BC008823E4F784E98093BC00C1
S11300F008959EE088E10FB6F894A8958093600077
S11301000FBE90936000089583E390E00E94400046
S11301100E9452000E9479000E944B000E945B00E2
S10B0120A895FACFF894FFCF73
S9030000FC
